{
  "_format": "hh-sol-artifact-1",
  "contractName": "RoastCourt",
  "sourceName": "contracts/RoastCourt.sol",
  "abi": [
    {
      "inputs": [
        {
          "internalType": "contract IERC20",
          "name": "_cUSD",
          "type": "address"
        },
        {
          "internalType": "address",
          "name": "_judgeSigner",
          "type": "address"
        },
        {
          "internalType": "address",
          "name": "_treasury",
          "type": "address"
        },
        {
          "internalType": "uint256",
          "name": "_priceWei",
          "type": "uint256"
        }
      ],
      "stateMutability": "nonpayable",
      "type": "constructor"
    },
    {
      "inputs": [],
      "name": "AlreadyClaimedToday",
      "type": "error"
    },
    {
      "inputs": [],
      "name": "ECDSAInvalidSignature",
      "type": "error"
    },
    {
      "inputs": [
        {
          "internalType": "uint256",
          "name": "length",
          "type": "uint256"
        }
      ],
      "name": "ECDSAInvalidSignatureLength",
      "type": "error"
    },
    {
      "inputs": [
        {
          "internalType": "bytes32",
          "name": "s",
          "type": "bytes32"
        }
      ],
      "name": "ECDSAInvalidSignatureS",
      "type": "error"
    },
    {
      "inputs": [],
      "name": "EnforcedPause",
      "type": "error"
    },
    {
      "inputs": [],
      "name": "ExpectedPause",
      "type": "error"
    },
    {
      "inputs": [],
      "name": "InsufficientPayment",
      "type": "error"
    },
    {
      "inputs": [],
      "name": "InvalidSignature",
      "type": "error"
    },
    {
      "inputs": [
        {
          "internalType": "address",
          "name": "owner",
          "type": "address"
        }
      ],
      "name": "OwnableInvalidOwner",
      "type": "error"
    },
    {
      "inputs": [
        {
          "internalType": "address",
          "name": "account",
          "type": "address"
        }
      ],
      "name": "OwnableUnauthorizedAccount",
      "type": "error"
    },
    {
      "inputs": [],
      "name": "ReentrancyGuardReentrantCall",
      "type": "error"
    },
    {
      "inputs": [
        {
          "internalType": "address",
          "name": "token",
          "type": "address"
        }
      ],
      "name": "SafeERC20FailedOperation",
      "type": "error"
    },
    {
      "anonymous": false,
      "inputs": [
        {
          "indexed": true,
          "internalType": "address",
          "name": "signer",
          "type": "address"
        }
      ],
      "name": "JudgeSignerUpdated",
      "type": "event"
    },
    {
      "anonymous": false,
      "inputs": [
        {
          "indexed": true,
          "internalType": "address",
          "name": "previousOwner",
          "type": "address"
        },
        {
          "indexed": true,
          "internalType": "address",
          "name": "newOwner",
          "type": "address"
        }
      ],
      "name": "OwnershipTransferred",
      "type": "event"
    },
    {
      "anonymous": false,
      "inputs": [
        {
          "indexed": false,
          "internalType": "address",
          "name": "account",
          "type": "address"
        }
      ],
      "name": "Paused",
      "type": "event"
    },
    {
      "anonymous": false,
      "inputs": [
        {
          "indexed": false,
          "internalType": "uint256",
          "name": "priceWei",
          "type": "uint256"
        }
      ],
      "name": "PriceUpdated",
      "type": "event"
    },
    {
      "anonymous": false,
      "inputs": [
        {
          "indexed": true,
          "internalType": "uint256",
          "name": "id",
          "type": "uint256"
        },
        {
          "indexed": true,
          "internalType": "address",
          "name": "user",
          "type": "address"
        },
        {
          "indexed": false,
          "internalType": "enum RoastCourt.Persona",
          "name": "persona",
          "type": "uint8"
        },
        {
          "indexed": false,
          "internalType": "bytes32",
          "name": "roastTextHash",
          "type": "bytes32"
        },
        {
          "indexed": false,
          "internalType": "bytes32",
          "name": "inputHash",
          "type": "bytes32"
        },
        {
          "indexed": false,
          "internalType": "uint256",
          "name": "amountPaid",
          "type": "uint256"
        }
      ],
      "name": "RoastIssued",
      "type": "event"
    },
    {
      "anonymous": false,
      "inputs": [
        {
          "indexed": true,
          "internalType": "address",
          "name": "treasury",
          "type": "address"
        }
      ],
      "name": "TreasuryUpdated",
      "type": "event"
    },
    {
      "anonymous": false,
      "inputs": [
        {
          "indexed": false,
          "internalType": "address",
          "name": "account",
          "type": "address"
        }
      ],
      "name": "Unpaused",
      "type": "event"
    },
    {
      "inputs": [],
      "name": "cUSD",
      "outputs": [
        {
          "internalType": "contract IERC20",
          "name": "",
          "type": "address"
        }
      ],
      "stateMutability": "view",
      "type": "function"
    },
    {
      "inputs": [
        {
          "internalType": "enum RoastCourt.Persona",
          "name": "persona",
          "type": "uint8"
        },
        {
          "internalType": "bytes32",
          "name": "roastTextHash",
          "type": "bytes32"
        },
        {
          "internalType": "bytes32",
          "name": "inputHash",
          "type": "bytes32"
        },
        {
          "internalType": "bytes",
          "name": "judgeSig",
          "type": "bytes"
        }
      ],
      "name": "claimFreeRoast",
      "outputs": [
        {
          "internalType": "uint256",
          "name": "id",
          "type": "uint256"
        }
      ],
      "stateMutability": "nonpayable",
      "type": "function"
    },
    {
      "inputs": [
        {
          "internalType": "enum RoastCourt.Persona",
          "name": "persona",
          "type": "uint8"
        },
        {
          "internalType": "bytes32",
          "name": "roastTextHash",
          "type": "bytes32"
        },
        {
          "internalType": "bytes32",
          "name": "inputHash",
          "type": "bytes32"
        },
        {
          "internalType": "bytes",
          "name": "judgeSig",
          "type": "bytes"
        }
      ],
      "name": "issueVerdict",
      "outputs": [
        {
          "internalType": "uint256",
          "name": "id",
          "type": "uint256"
        }
      ],
      "stateMutability": "nonpayable",
      "type": "function"
    },
    {
      "inputs": [],
      "name": "judgeSigner",
      "outputs": [
        {
          "internalType": "address",
          "name": "",
          "type": "address"
        }
      ],
      "stateMutability": "view",
      "type": "function"
    },
    {
      "inputs": [
        {
          "internalType": "address",
          "name": "",
          "type": "address"
        }
      ],
      "name": "lastFreeRoast",
      "outputs": [
        {
          "internalType": "uint64",
          "name": "",
          "type": "uint64"
        }
      ],
      "stateMutability": "view",
      "type": "function"
    },
    {
      "inputs": [],
      "name": "nextId",
      "outputs": [
        {
          "internalType": "uint256",
          "name": "",
          "type": "uint256"
        }
      ],
      "stateMutability": "view",
      "type": "function"
    },
    {
      "inputs": [],
      "name": "owner",
      "outputs": [
        {
          "internalType": "address",
          "name": "",
          "type": "address"
        }
      ],
      "stateMutability": "view",
      "type": "function"
    },
    {
      "inputs": [],
      "name": "pause",
      "outputs": [],
      "stateMutability": "nonpayable",
      "type": "function"
    },
    {
      "inputs": [],
      "name": "paused",
      "outputs": [
        {
          "internalType": "bool",
          "name": "",
          "type": "bool"
        }
      ],
      "stateMutability": "view",
      "type": "function"
    },
    {
      "inputs": [],
      "name": "priceWei",
      "outputs": [
        {
          "internalType": "uint256",
          "name": "",
          "type": "uint256"
        }
      ],
      "stateMutability": "view",
      "type": "function"
    },
    {
      "inputs": [],
      "name": "renounceOwnership",
      "outputs": [],
      "stateMutability": "nonpayable",
      "type": "function"
    },
    {
      "inputs": [
        {
          "internalType": "address",
          "name": "",
          "type": "address"
        }
      ],
      "name": "roastCount",
      "outputs": [
        {
          "internalType": "uint256",
          "name": "",
          "type": "uint256"
        }
      ],
      "stateMutability": "view",
      "type": "function"
    },
    {
      "inputs": [
        {
          "internalType": "address",
          "name": "s",
          "type": "address"
        }
      ],
      "name": "setJudgeSigner",
      "outputs": [],
      "stateMutability": "nonpayable",
      "type": "function"
    },
    {
      "inputs": [
        {
          "internalType": "uint256",
          "name": "p",
          "type": "uint256"
        }
      ],
      "name": "setPrice",
      "outputs": [],
      "stateMutability": "nonpayable",
      "type": "function"
    },
    {
      "inputs": [
        {
          "internalType": "address",
          "name": "t",
          "type": "address"
        }
      ],
      "name": "setTreasury",
      "outputs": [],
      "stateMutability": "nonpayable",
      "type": "function"
    },
    {
      "inputs": [
        {
          "internalType": "address",
          "name": "newOwner",
          "type": "address"
        }
      ],
      "name": "transferOwnership",
      "outputs": [],
      "stateMutability": "nonpayable",
      "type": "function"
    },
    {
      "inputs": [],
      "name": "treasury",
      "outputs": [
        {
          "internalType": "address",
          "name": "",
          "type": "address"
        }
      ],
      "stateMutability": "view",
      "type": "function"
    },
    {
      "inputs": [],
      "name": "unpause",
      "outputs": [],
      "stateMutability": "nonpayable",
      "type": "function"
    },
    {
      "inputs": [
        {
          "internalType": "uint256",
          "name": "",
          "type": "uint256"
        }
      ],
      "name": "verdicts",
      "outputs": [
        {
          "internalType": "address",
          "name": "user",
          "type": "address"
        },
        {
          "internalType": "uint256",
          "name": "amountPaid",
          "type": "uint256"
        },
        {
          "internalType": "bytes32",
          "name": "roastTextHash",
          "type": "bytes32"
        },
        {
          "internalType": "bytes32",
          "name": "inputHash",
          "type": "bytes32"
        },
        {
          "internalType": "enum RoastCourt.Persona",
          "name": "persona",
          "type": "uint8"
        },
        {
          "internalType": "uint64",
          "name": "timestamp",
          "type": "uint64"
        }
      ],
      "stateMutability": "view",
      "type": "function"
    }
  ],
  "bytecode": "0x60a03461012a57601f610f9c38819003918201601f19168301916001600160401b0383118484101761012e5780849260809460405283398101031261012a5780516001600160a01b039190828116810361012a5761005f60208301610142565b92606061006e60408501610142565b93015192331561011257815f549560018060a01b03199433868916175f5560405197833391167f8be0079c531659141344cd1fd0a4f28419497f9722a3daafe3b4186f6b6457e05f80a360017f9b779b17422d0df92223018b32b4d1fa46e071723d6817e2486d003becc55f00556080521683600154161760015516906003541617600355600255610e459081610157823960805181818161049801526108770152f35b604051631e4fbdf760e01b81525f6004820152602490fd5b5f80fd5b634e487b7160e01b5f52604160045260245ffd5b51906001600160a01b038216820361012a5756fe60406080815260049081361015610014575f80fd5b5f3560e01c8063161ef704146108a65780631fccf672146108635780633e0204fe146107eb5780633f4ba83a1461077e578063574046ff146107565780635c975abb1461073157806361b8ce8c1461071557806361d027b3146106ed578063715018a6146106965780637c65a887146103b45780638456cb59146103565780638da5cb5b1461032f57806391b7f5ed146102e2578063b3a2b6d9146102a7578063b7ec208614610289578063c4e4ea7214610244578063ee226cff146101df578063f0f442601461017a5763f2fde38b146100ed575f80fd5b34610176576020366003190112610176576001600160a01b038235818116939192908490036101765761011e610cae565b83156101605750505f54826001600160601b0360a01b8216175f55167f8be0079c531659141344cd1fd0a4f28419497f9722a3daafe3b4186f6b6457e05f80a3005b905f6024925191631e4fbdf760e01b8352820152fd5b5f80fd5b823461017657602036600319011261017657356001600160a01b03811690819003610176576101a7610cae565b600380546001600160a01b031916821790557f7dae230f18360d76a040c81f050aa14eb9d6dc7901b20fc5d855e2a20fe814d15f80a2005b823461017657602036600319011261017657356001600160a01b038116908190036101765761020c610cae565b600180546001600160a01b031916821790557fce789691cade1ee0da94865172f66d458f3d11465390a6ac9cb9dcb58c06414c5f80a2005b50903461017657602036600319011261017657356001600160a01b0381169190829003610176576020915f526007825267ffffffffffffffff815f2054169051908152f35b5034610176575f366003190112610176576020906002549051908152f35b50903461017657602036600319011261017657356001600160a01b0381169190829003610176576020915f5260068252805f20549051908152f35b509034610176576020366003190112610176577f66cbca4f3c64fecf1dcb9ce094abcf7f68c3450a1d4e3a8e917dd621edb4ebe0916020913590610324610cae565b8160025551908152a1005b5034610176575f366003190112610176575f5490516001600160a01b039091168152602090f35b5034610176575f3660031901126101765760207f62e78cea01bee320cd4e420270b5ea74000d11b0c9f74754ebdbfc544b05a25891610393610cae565b61039b610c4c565b5f805460ff60a01b1916600160a01b17905551338152a1005b509034610176576103c436610b1d565b95929093916103d1610c4c565b6103d9610c6c565b835160209586820146815230878401523360608401526103fc6080840187610b7b565b8460a08401528360c084015260c0835260e083019267ffffffffffffffff9381811085821117610683579288999a9b9261046e926104749561047d9b525190207f19457468657265756d205369676e6564204d6573736167653a0a3332000000005f52601c52603c5f20923691610bcc565b90610cd9565b90969196610d13565b6001805490956001600160a01b0391821690821603610673577f00000000000000000000000000000000000000000000000000000000000000008160035416906002548951926323b872dd60e01b5f52338d52602452604452895f60648180855af1885f5114811615610655575b828a525f6060521561063f57505097849181888a9b61050a8354610c1e565b9b8c9182855560025490600585519561052287610b9c565b3387528487019384528601938c855260608701958c8752610547608089019c8d610c40565b60a088019942168a525f52528d5f209451166001600160601b0360a01b855416178455518b84015551600283015551600382015501925191600383101561062c575060ff68ffffffffffffffff008454925160081b1692169068ffffffffffffffffff191617179055335f5260068752845f20848154019055600254916105d086518095610b7b565b87840152848301526060820152837f698d5c0e122b50252396a26996d75ca3f09f8bc29369c4750e2271c5a18483e060803393a37f9b779b17422d0df92223018b32b4d1fa46e071723d6817e2486d003becc55f005551908152f35b602190634e487b7160e01b5f525260245ffd5b635274afe760e01b8252909116818a0152602490fd5b8881151661066a57813b15153d1516166104eb565b823d5f823e3d90fd5b8651638baa579f60e01b81528990fd5b60418b634e487b7160e01b5f525260245ffd5b34610176575f366003190112610176576106ae610cae565b5f80546001600160a01b0319811682556001600160a01b03167f8be0079c531659141344cd1fd0a4f28419497f9722a3daafe3b4186f6b6457e08280a3005b5034610176575f3660031901126101765760035490516001600160a01b039091168152602090f35b5034610176575f36600319011261017657602091549051908152f35b5034610176575f3660031901126101765760209060ff5f5460a01c1690519015158152f35b5034610176575f3660031901126101765760015490516001600160a01b039091168152602090f35b5034610176575f36600319011261017657610797610cae565b5f549160ff8360a01c16156107dd5760ff60a01b1983165f5581513381527f5db9ee0a495bf2e6ff9c91a7834c1ba4fdd244a5e8aa4e537bd38aeae4b073aa90602090a1005b9051638dfc202b60e01b8152fd5b5090346101765760203660031901126101765767ffffffffffffffff60c09282355f526005602052805f2060018060a01b03815416936001820154926002830154916003840154930154938151968752602087015285015260608401526108586080840160ff8316610b7b565b60081c1660a0820152f35b5034610176575f36600319011261017657517f00000000000000000000000000000000000000000000000000000000000000006001600160a01b03168152602090f35b509034610176576108b636610b1d565b95939290946108c3610c4c565b6108cb610c6c565b67ffffffffffffffff806201518042041696335f52602097600789528083895f20541614610b0d57335f5260078952875f209067ffffffffffffffff19825416179055865188810190468252308982015233606082015261092f6080820189610b7b565b8560a08201528660c0820152600160e082015260e08152610100810181811085821117610afa57926109a59a9b9261046e9261099c958c525190207f19457468657265756d205369676e6564204d6573736167653a0a3332000000005f52601c52603c5f20923691610bcc565b90989198610d13565b6001546001600160a01b039790881690881603610aeb57908491816109ca8154610c1e565b98898255898b8a51926109dc84610b9c565b338452818401905f825260058d8601938b855260608701958d8752610a05608089019c8d610c40565b60a088019942168a525f52528c5f209451166001600160601b0360a01b85541617845551600184015551600283015551600382015501925191600383101561062c575060ff68ffffffffffffffff008454925160081b1692169068ffffffffffffffffff191617179055335f5260068652835f2060018154019055610a8c84518094610b7b565b85830152828201525f6060820152827f698d5c0e122b50252396a26996d75ca3f09f8bc29369c4750e2271c5a18483e060803393a360017f9b779b17422d0df92223018b32b4d1fa46e071723d6817e2486d003becc55f005551908152f35b508451638baa579f60e01b8152fd5b604186634e487b7160e01b5f525260245ffd5b8751631cd8d2cf60e11b81528490fd5b60806003198201126101765760043560038110156101765791602435916044359160643567ffffffffffffffff9283821161017657806023830112156101765781600401359384116101765760248483010111610176576024019190565b906003821015610b885752565b634e487b7160e01b5f52602160045260245ffd5b60c0810190811067ffffffffffffffff821117610bb857604052565b634e487b7160e01b5f52604160045260245ffd5b92919267ffffffffffffffff91828111610bb85760405192601f8201601f19908116603f0116840190811184821017610bb857604052829481845281830111610176578281602093845f960137010152565b5f198114610c2c5760010190565b634e487b7160e01b5f52601160045260245ffd5b6003821015610b885752565b60ff5f5460a01c16610c5a57565b60405163d93c066560e01b8152600490fd5b7f9b779b17422d0df92223018b32b4d1fa46e071723d6817e2486d003becc55f006002815414610c9c5760029055565b604051633ee5aeb560e01b8152600490fd5b5f546001600160a01b03163303610cc157565b60405163118cdaa760e01b8152336004820152602490fd5b8151919060418303610d0957610d029250602082015190606060408401519301515f1a90610d82565b9192909190565b50505f9160029190565b6004811015610b885780610d25575050565b60018103610d3f5760405163f645eedf60e01b8152600490fd5b60028103610d605760405163fce698f760e01b815260048101839052602490fd5b600314610d6a5750565b602490604051906335e2f38360e21b82526004820152fd5b91907f7fffffffffffffffffffffffffffffff5d576e7357a4501ddfe92f46681b20a08411610e04579160209360809260ff5f9560405194855216868401526040830152606082015282805260015afa15610df9575f516001600160a01b03811615610def57905f905f90565b505f906001905f90565b6040513d5f823e3d90fd5b5050505f916003919056fea2646970667358221220fb88d97245a0a352b3a25ac380623141f5c21a285bc2cb6987efd85bcdbc694564736f6c63430008180033",
  "linkReferences": {},
  "deployedLinkReferences": {}
}